{
  "contractName": "Doctor",
  "abi": [
    {
      "constant": true,
      "inputs": [
        {
          "name": "",
          "type": "uint256"
        }
      ],
      "name": "appointments",
      "outputs": [
        {
          "name": "appointmentId",
          "type": "uint256"
        },
        {
          "name": "patientId",
          "type": "uint256"
        },
        {
          "name": "doctorId",
          "type": "uint256"
        },
        {
          "name": "date",
          "type": "string"
        },
        {
          "name": "chiefComplaint",
          "type": "string"
        },
        {
          "name": "hash",
          "type": "string"
        },
        {
          "name": "completed",
          "type": "bool"
        }
      ],
      "payable": false,
      "stateMutability": "view",
      "type": "function"
    },
    {
      "constant": true,
      "inputs": [],
      "name": "qualification",
      "outputs": [
        {
          "name": "",
          "type": "string"
        }
      ],
      "payable": false,
      "stateMutability": "view",
      "type": "function"
    },
    {
      "constant": true,
      "inputs": [],
      "name": "manager",
      "outputs": [
        {
          "name": "",
          "type": "address"
        }
      ],
      "payable": false,
      "stateMutability": "view",
      "type": "function"
    },
    {
      "constant": true,
      "inputs": [],
      "name": "doctorName",
      "outputs": [
        {
          "name": "",
          "type": "string"
        }
      ],
      "payable": false,
      "stateMutability": "view",
      "type": "function"
    },
    {
      "constant": true,
      "inputs": [],
      "name": "gender",
      "outputs": [
        {
          "name": "",
          "type": "string"
        }
      ],
      "payable": false,
      "stateMutability": "view",
      "type": "function"
    },
    {
      "constant": true,
      "inputs": [
        {
          "name": "",
          "type": "uint256"
        }
      ],
      "name": "appointmentsList",
      "outputs": [
        {
          "name": "",
          "type": "uint256"
        }
      ],
      "payable": false,
      "stateMutability": "view",
      "type": "function"
    },
    {
      "constant": true,
      "inputs": [],
      "name": "doctorId",
      "outputs": [
        {
          "name": "",
          "type": "uint256"
        }
      ],
      "payable": false,
      "stateMutability": "view",
      "type": "function"
    },
    {
      "constant": true,
      "inputs": [],
      "name": "patientAddress",
      "outputs": [
        {
          "name": "",
          "type": "address"
        }
      ],
      "payable": false,
      "stateMutability": "view",
      "type": "function"
    },
    {
      "inputs": [
        {
          "name": "_doctorId",
          "type": "uint256"
        },
        {
          "name": "_doctorName",
          "type": "string"
        },
        {
          "name": "_gender",
          "type": "string"
        },
        {
          "name": "_qualification",
          "type": "string"
        },
        {
          "name": "_account",
          "type": "address"
        }
      ],
      "payable": false,
      "stateMutability": "nonpayable",
      "type": "constructor"
    },
    {
      "constant": false,
      "inputs": [
        {
          "name": "_AppointmentId",
          "type": "uint256"
        },
        {
          "name": "_PatientId",
          "type": "uint256"
        },
        {
          "name": "_DoctorId",
          "type": "uint256"
        },
        {
          "name": "_Date",
          "type": "string"
        },
        {
          "name": "_chiefComplaint",
          "type": "string"
        }
      ],
      "name": "addAppointment",
      "outputs": [],
      "payable": false,
      "stateMutability": "nonpayable",
      "type": "function"
    },
    {
      "constant": false,
      "inputs": [
        {
          "name": "_AppointmentId",
          "type": "uint256"
        },
        {
          "name": "hash",
          "type": "string"
        }
      ],
      "name": "addPrescription",
      "outputs": [],
      "payable": false,
      "stateMutability": "nonpayable",
      "type": "function"
    },
    {
      "constant": false,
      "inputs": [
        {
          "name": "fac",
          "type": "address"
        }
      ],
      "name": "setFactoryAddress",
      "outputs": [],
      "payable": false,
      "stateMutability": "nonpayable",
      "type": "function"
    },
    {
      "constant": true,
      "inputs": [
        {
          "name": "doctorId",
          "type": "uint256"
        }
      ],
      "name": "getSummary",
      "outputs": [
        {
          "name": "",
          "type": "uint256"
        },
        {
          "name": "",
          "type": "string"
        },
        {
          "name": "",
          "type": "string"
        },
        {
          "name": "",
          "type": "string"
        },
        {
          "name": "",
          "type": "address"
        }
      ],
      "payable": false,
      "stateMutability": "view",
      "type": "function"
    }
  ],
  "bytecode": "0x60806040523480156200001157600080fd5b506040516200172c3803806200172c8339810180604052810190808051906020019092919080518201929190602001805182019291906020018051820192919060200180519060200190929190505050836000908051906020019062000079929190620000ff565b50826002908051906020019062000092929190620000ff565b508160039080519060200190620000ab929190620000ff565b5080600460006101000a81548173ffffffffffffffffffffffffffffffffffffffff021916908373ffffffffffffffffffffffffffffffffffffffff160217905550846001819055505050505050620001ae565b828054600181600116156101000203166002900490600052602060002090601f016020900481019282601f106200014257805160ff191683800117855562000173565b8280016001018555821562000173579182015b828111156200017257825182559160200191906001019062000155565b5b50905062000182919062000186565b5090565b620001ab91905b80821115620001a75760008160009055506001016200018d565b5090565b90565b61156e80620001be6000396000f3006080604052600436106100ba576000357c0100000000000000000000000000000000000000000000000000000000900463ffffffff16806312dc9013146100bf5780633b2c22b01461025d578063466c6db7146102ed578063481c6a75146103ba578063767027231461041157806379caad86146104a157806383c17c5514610531578063aee1446014610574578063c33465fa1461072c578063d850a8711461076d578063e571fd2d14610798578063f9d344c91461080b575b600080fd5b3480156100cb57600080fd5b506100ea60048036038101908080359060200190929190505050610862565b6040518088815260200187815260200186815260200180602001806020018060200185151515158152602001848103845288818151815260200191508051906020019080838360005b8381101561014e578082015181840152602081019050610133565b50505050905090810190601f16801561017b5780820380516001836020036101000a031916815260200191505b50848103835287818151815260200191508051906020019080838360005b838110156101b4578082015181840152602081019050610199565b50505050905090810190601f1680156101e15780820380516001836020036101000a031916815260200191505b50848103825286818151815260200191508051906020019080838360005b8381101561021a5780820151818401526020810190506101ff565b50505050905090810190601f1680156102475780820380516001836020036101000a031916815260200191505b509a505050505050505050505060405180910390f35b34801561026957600080fd5b50610272610a79565b6040518080602001828103825283818151815260200191508051906020019080838360005b838110156102b2578082015181840152602081019050610297565b50505050905090810190601f1680156102df5780820380516001836020036101000a031916815260200191505b509250505060405180910390f35b3480156102f957600080fd5b506103b8600480360381019080803590602001909291908035906020019092919080359060200190929190803590602001908201803590602001908080601f0160208091040260200160405190810160405280939291908181526020018383808284378201915050505050509192919290803590602001908201803590602001908080601f0160208091040260200160405190810160405280939291908181526020018383808284378201915050505050509192919290505050610b17565b005b3480156103c657600080fd5b506103cf610c48565b604051808273ffffffffffffffffffffffffffffffffffffffff1673ffffffffffffffffffffffffffffffffffffffff16815260200191505060405180910390f35b34801561041d57600080fd5b50610426610c6e565b6040518080602001828103825283818151815260200191508051906020019080838360005b8381101561046657808201518184015260208101905061044b565b50505050905090810190601f1680156104935780820380516001836020036101000a031916815260200191505b509250505060405180910390f35b3480156104ad57600080fd5b506104b6610d0c565b6040518080602001828103825283818151815260200191508051906020019080838360005b838110156104f65780820151818401526020810190506104db565b50505050905090810190601f1680156105235780820380516001836020036101000a031916815260200191505b509250505060405180910390f35b34801561053d57600080fd5b50610572600480360381019080803573ffffffffffffffffffffffffffffffffffffffff169060200190929190505050610daa565b005b34801561058057600080fd5b5061059f60048036038101908080359060200190929190505050610dee565b604051808681526020018060200180602001806020018573ffffffffffffffffffffffffffffffffffffffff1673ffffffffffffffffffffffffffffffffffffffff168152602001848103845288818151815260200191508051906020019080838360005b8381101561061f578082015181840152602081019050610604565b50505050905090810190601f16801561064c5780820380516001836020036101000a031916815260200191505b50848103835287818151815260200191508051906020019080838360005b8381101561068557808201518184015260208101905061066a565b50505050905090810190601f1680156106b25780820380516001836020036101000a031916815260200191505b50848103825286818151815260200191508051906020019080838360005b838110156106eb5780820151818401526020810190506106d0565b50505050905090810190601f1680156107185780820380516001836020036101000a031916815260200191505b509850505050505050505060405180910390f35b34801561073857600080fd5b5061075760048036038101908080359060200190929190505050611008565b6040518082815260200191505060405180910390f35b34801561077957600080fd5b5061078261102b565b6040518082815260200191505060405180910390f35b3480156107a457600080fd5b5061080960048036038101908080359060200190929190803590602001908201803590602001908080601f0160208091040260200160405190810160405280939291908181526020018383808284378201915050505050509192919290505050611031565b005b34801561081757600080fd5b506108206113b7565b604051808273ffffffffffffffffffffffffffffffffffffffff1673ffffffffffffffffffffffffffffffffffffffff16815260200191505060405180910390f35b600b602052806000526040600020600091509050806000015490806001015490806002015490806003018054600181600116156101000203166002900480601f0160208091040260200160405190810160405280929190818152602001828054600181600116156101000203166002900480156109205780601f106108f557610100808354040283529160200191610920565b820191906000526020600020905b81548152906001019060200180831161090357829003601f168201915b505050505090806004018054600181600116156101000203166002900480601f0160208091040260200160405190810160405280929190818152602001828054600181600116156101000203166002900480156109be5780601f10610993576101008083540402835291602001916109be565b820191906000526020600020905b8154815290600101906020018083116109a157829003601f168201915b505050505090806005018054600181600116156101000203166002900480601f016020809104026020016040519081016040528092919081815260200182805460018160011615610100020316600290048015610a5c5780601f10610a3157610100808354040283529160200191610a5c565b820191906000526020600020905b815481529060010190602001808311610a3f57829003601f168201915b5050505050908060060160009054906101000a900460ff16905087565b60038054600181600116156101000203166002900480601f016020809104026020016040519081016040528092919081815260200182805460018160011615610100020316600290048015610b0f5780601f10610ae457610100808354040283529160200191610b0f565b820191906000526020600020905b815481529060010190602001808311610af257829003601f168201915b505050505081565b610b1f6113dd565b60e0604051908101604052808781526020018681526020018581526020018481526020018381526020016020604051908101604052806000815250815260200160001515815250905080600b60008881526020019081526020016000206000820151816000015560208201518160010155604082015181600201556060820151816003019080519060200190610bb692919061141d565b506080820151816004019080519060200190610bd392919061141d565b5060a0820151816005019080519060200190610bf092919061141d565b5060c08201518160060160006101000a81548160ff0219169083151502179055509050506009869080600181540180825580915050906001820390600052602060002001600090919290919091505550505050505050565b600460009054906101000a900473ffffffffffffffffffffffffffffffffffffffff1681565b60008054600181600116156101000203166002900480601f016020809104026020016040519081016040528092919081815260200182805460018160011615610100020316600290048015610d045780601f10610cd957610100808354040283529160200191610d04565b820191906000526020600020905b815481529060010190602001808311610ce757829003601f168201915b505050505081565b60028054600181600116156101000203166002900480601f016020809104026020016040519081016040528092919081815260200182805460018160011615610100020316600290048015610da25780601f10610d7757610100808354040283529160200191610da2565b820191906000526020600020905b815481529060010190602001808311610d8557829003601f168201915b505050505081565b80600a60006101000a81548173ffffffffffffffffffffffffffffffffffffffff021916908373ffffffffffffffffffffffffffffffffffffffff16021790555050565b60006060806060600085600060026003600460009054906101000a900473ffffffffffffffffffffffffffffffffffffffff16838054600181600116156101000203166002900480601f016020809104026020016040519081016040528092919081815260200182805460018160011615610100020316600290048015610eb65780601f10610e8b57610100808354040283529160200191610eb6565b820191906000526020600020905b815481529060010190602001808311610e9957829003601f168201915b50505050509350828054600181600116156101000203166002900480601f016020809104026020016040519081016040528092919081815260200182805460018160011615610100020316600290048015610f525780601f10610f2757610100808354040283529160200191610f52565b820191906000526020600020905b815481529060010190602001808311610f3557829003601f168201915b50505050509250818054600181600116156101000203166002900480601f016020809104026020016040519081016040528092919081815260200182805460018160011615610100020316600290048015610fee5780601f10610fc357610100808354040283529160200191610fee565b820191906000526020600020905b815481529060010190602001808311610fd157829003601f168201915b505050505091509450945094509450945091939590929450565b60098181548110151561101757fe5b906000526020600020016000915090505481565b60015481565b6000600b6000848152602001908152602001600020600101549050600a60009054906101000a900473ffffffffffffffffffffffffffffffffffffffff16600760006101000a81548173ffffffffffffffffffffffffffffffffffffffff021916908373ffffffffffffffffffffffffffffffffffffffff160217905550600760009054906101000a900473ffffffffffffffffffffffffffffffffffffffff1673ffffffffffffffffffffffffffffffffffffffff1663097ee8cd826040518263ffffffff167c010000000000000000000000000000000000000000000000000000000002815260040180828152602001915050602060405180830381600087803b15801561114057600080fd5b505af1158015611154573d6000803e3d6000fd5b505050506040513d602081101561116a57600080fd5b8101908080519060200190929190505050600560006101000a81548173ffffffffffffffffffffffffffffffffffffffff021916908373ffffffffffffffffffffffffffffffffffffffff160217905550600560009054906101000a900473ffffffffffffffffffffffffffffffffffffffff16600860006101000a81548173ffffffffffffffffffffffffffffffffffffffff021916908373ffffffffffffffffffffffffffffffffffffffff160217905550600860009054906101000a900473ffffffffffffffffffffffffffffffffffffffff1673ffffffffffffffffffffffffffffffffffffffff1663e571fd2d84846040518363ffffffff167c01000000000000000000000000000000000000000000000000000000000281526004018083815260200180602001828103825283818151815260200191508051906020019080838360005b838110156112cf5780820151818401526020810190506112b4565b50505050905090810190601f1680156112fc5780820380516001836020036101000a031916815260200191505b509350505050602060405180830381600087803b15801561131c57600080fd5b505af1158015611330573d6000803e3d6000fd5b505050506040513d602081101561134657600080fd5b81019080805190602001909291905050505081600b6000858152602001908152602001600020600501908051906020019061138292919061149d565b506001600b600085815260200190815260200160002060060160006101000a81548160ff021916908315150217905550505050565b600560009054906101000a900473ffffffffffffffffffffffffffffffffffffffff1681565b60e0604051908101604052806000815260200160008152602001600081526020016060815260200160608152602001606081526020016000151581525090565b828054600181600116156101000203166002900490600052602060002090601f016020900481019282601f1061145e57805160ff191683800117855561148c565b8280016001018555821561148c579182015b8281111561148b578251825591602001919060010190611470565b5b509050611499919061151d565b5090565b828054600181600116156101000203166002900490600052602060002090601f016020900481019282601f106114de57805160ff191683800117855561150c565b8280016001018555821561150c579182015b8281111561150b5782518255916020019190600101906114f0565b5b509050611519919061151d565b5090565b61153f91905b8082111561153b576000816000905550600101611523565b5090565b905600a165627a7a723058201248afbb4be2121c8283a88f78ce2331af5dde651f2263aefcadbf3e0960d20f0029",
  "source": "pragma solidity ^0.4.24;\n\n\nimport \"./Receptionist.sol\";\nimport \"./Patient.sol\";\ncontract Doctor{\n\n    struct Appointment{\n        uint appointmentId;\n        uint patientId;\n        uint doctorId;\n        string date;\n        string chiefComplaint;\n        string hash;\n        bool completed;\n\n    }\n    string public doctorName;\n    uint public doctorId;\n    string public gender;\n    string public qualification;\n    address public manager;\n    address public patientAddress;\n    string prescription;\n\n    //patient and factory\n    ReceptionsitFactory factory;\n    Patient patient;\n\n    uint[] public appointmentsList;\n    address factoryAddress;\n\n    mapping(uint=>Appointment) public appointments;\n\n    constructor( uint _doctorId  , string _doctorName, string _gender, string _qualification, address _account){\n        doctorName = _doctorName;\n        gender = _gender;\n        qualification = _qualification;\n        manager = _account;\n        doctorId = _doctorId;\n\n    }\n\n\n      function addAppointment(uint _AppointmentId, uint _PatientId , uint _DoctorId , string _Date , string _chiefComplaint) public{\n          Appointment memory newAppointment = Appointment({\n              appointmentId : _AppointmentId ,\n              patientId : _PatientId ,\n              doctorId : _DoctorId ,\n              date : _Date ,\n              chiefComplaint : _chiefComplaint,\n              hash : '',\n              completed: false\n\n\n          });\n\n          appointments[_AppointmentId]=newAppointment;\n\n          appointmentsList.push(_AppointmentId);\n      }\n\n       function addPrescription(uint _AppointmentId , string hash){\n\n           uint patientId=appointments[_AppointmentId].patientId;\n          factory = ReceptionsitFactory(factoryAddress);\n        patientAddress=factory.getPatientAddress(patientId);\n       patient = Patient(patientAddress);\n       patient.addPrescription(_AppointmentId , hash);\n       appointments[_AppointmentId].hash=hash;\n       appointments[_AppointmentId].completed=true;\n\n\n       }\n\n      function setFactoryAddress(address fac){\n          factoryAddress = fac;\n      }\n\n      function getSummary(uint doctorId) public view returns(uint , string, string , string ,  address){\n        return(doctorId , doctorName , gender , qualification , manager);\n      }\n}\n",
  "sourcePath": "/home/aman/Downloads/Video/health/contracts/Doctor.sol",
  "compiler": {
    "name": "solc",
    "version": "0.4.24+commit.e67f0147.Emscripten.clang"
  },
  "schemaVersion": "2.0.1",
  "updatedAt": "2019-02-27T06:47:38.785Z"
}