{
  "contractName": "PatientFactory",
  "abi": [
    {
      "constant": true,
      "inputs": [],
      "name": "manager",
      "outputs": [
        {
          "name": "",
          "type": "address"
        }
      ],
      "payable": false,
      "stateMutability": "view",
      "type": "function"
    },
    {
      "constant": true,
      "inputs": [
        {
          "name": "",
          "type": "uint256"
        }
      ],
      "name": "patientId",
      "outputs": [
        {
          "name": "",
          "type": "uint256"
        }
      ],
      "payable": false,
      "stateMutability": "view",
      "type": "function"
    },
    {
      "constant": true,
      "inputs": [
        {
          "name": "",
          "type": "address"
        }
      ],
      "name": "accountToAddress",
      "outputs": [
        {
          "name": "",
          "type": "address"
        }
      ],
      "payable": false,
      "stateMutability": "view",
      "type": "function"
    },
    {
      "constant": true,
      "inputs": [
        {
          "name": "",
          "type": "uint256"
        }
      ],
      "name": "patientIdToAddress",
      "outputs": [
        {
          "name": "",
          "type": "address"
        }
      ],
      "payable": false,
      "stateMutability": "view",
      "type": "function"
    },
    {
      "constant": true,
      "inputs": [
        {
          "name": "",
          "type": "uint256"
        }
      ],
      "name": "checkPatientId",
      "outputs": [
        {
          "name": "",
          "type": "bool"
        }
      ],
      "payable": false,
      "stateMutability": "view",
      "type": "function"
    },
    {
      "inputs": [],
      "payable": false,
      "stateMutability": "nonpayable",
      "type": "constructor"
    },
    {
      "constant": false,
      "inputs": [
        {
          "name": "_PatientId",
          "type": "uint256"
        },
        {
          "name": "_patientName",
          "type": "string"
        },
        {
          "name": "_gender",
          "type": "string"
        },
        {
          "name": "_age",
          "type": "uint256"
        },
        {
          "name": "_account",
          "type": "address"
        }
      ],
      "name": "addPatient",
      "outputs": [],
      "payable": false,
      "stateMutability": "nonpayable",
      "type": "function"
    },
    {
      "constant": true,
      "inputs": [],
      "name": "getPatientList",
      "outputs": [
        {
          "name": "",
          "type": "uint256"
        }
      ],
      "payable": false,
      "stateMutability": "view",
      "type": "function"
    }
  ],
  "bytecode": "0x608060405234801561001057600080fd5b5033600460006101000a81548173ffffffffffffffffffffffffffffffffffffffff021916908373ffffffffffffffffffffffffffffffffffffffff16021790555061115e806100616000396000f300608060405260043610610083576000357c0100000000000000000000000000000000000000000000000000000000900463ffffffff168063481c6a7514610088578063503b1354146100df578063931932091461010a5780639e57f379146101ed578063b969463f1461022e578063c2c9a9bc146102b1578063d0ac3c631461031e575b600080fd5b34801561009457600080fd5b5061009d610363565b604051808273ffffffffffffffffffffffffffffffffffffffff1673ffffffffffffffffffffffffffffffffffffffff16815260200191505060405180910390f35b3480156100eb57600080fd5b506100f4610389565b6040518082815260200191505060405180910390f35b34801561011657600080fd5b506101eb60048036038101908080359060200190929190803590602001908201803590602001908080601f0160208091040260200160405190810160405280939291908181526020018383808284378201915050505050509192919290803590602001908201803590602001908080601f016020809104026020016040519081016040528093929190818152602001838380828437820191505050505050919291929080359060200190929190803573ffffffffffffffffffffffffffffffffffffffff169060200190929190505050610396565b005b3480156101f957600080fd5b506102186004803603810190808035906020019092919050505061063c565b6040518082815260200191505060405180910390f35b34801561023a57600080fd5b5061026f600480360381019080803573ffffffffffffffffffffffffffffffffffffffff16906020019092919050505061065f565b604051808273ffffffffffffffffffffffffffffffffffffffff1673ffffffffffffffffffffffffffffffffffffffff16815260200191505060405180910390f35b3480156102bd57600080fd5b506102dc60048036038101908080359060200190929190505050610692565b604051808273ffffffffffffffffffffffffffffffffffffffff1673ffffffffffffffffffffffffffffffffffffffff16815260200191505060405180910390f35b34801561032a57600080fd5b50610349600480360381019080803590602001909291905050506106c5565b604051808215151515815260200191505060405180910390f35b600460009054906101000a900473ffffffffffffffffffffffffffffffffffffffff1681565b6000600380549050905090565b60006002600087815260200190815260200160002060009054906101000a900460ff161515156103c557600080fd5b85858585856103d26106e5565b8086815260200180602001806020018581526020018473ffffffffffffffffffffffffffffffffffffffff1673ffffffffffffffffffffffffffffffffffffffff168152602001838103835287818151815260200191508051906020019080838360005b83811015610451578082015181840152602081019050610436565b50505050905090810190601f16801561047e5780820380516001836020036101000a031916815260200191505b50838103825286818151815260200191508051906020019080838360005b838110156104b757808201518184015260208101905061049c565b50505050905090810190601f1680156104e45780820380516001836020036101000a031916815260200191505b50975050505050505050604051809103906000f08015801561050a573d6000803e3d6000fd5b509050806000808473ffffffffffffffffffffffffffffffffffffffff1673ffffffffffffffffffffffffffffffffffffffff16815260200190815260200160002060006101000a81548173ffffffffffffffffffffffffffffffffffffffff021916908373ffffffffffffffffffffffffffffffffffffffff160217905550806001600088815260200190815260200160002060006101000a81548173ffffffffffffffffffffffffffffffffffffffff021916908373ffffffffffffffffffffffffffffffffffffffff160217905550600386908060018154018082558091505090600182039060005260206000200160009091929091909150555060016002600088815260200190815260200160002060006101000a81548160ff021916908315150217905550505050505050565b60038181548110151561064b57fe5b906000526020600020016000915090505481565b60006020528060005260406000206000915054906101000a900473ffffffffffffffffffffffffffffffffffffffff1681565b60016020528060005260406000206000915054906101000a900473ffffffffffffffffffffffffffffffffffffffff1681565b60026020528060005260406000206000915054906101000a900460ff1681565b604051610a3d806106f6833901905600608060405234801561001057600080fd5b50604051610a3d380380610a3d833981018060405281019080805190602001909291908051820192919060200180518201929190602001805190602001909291908051906020019092919050505083600090805190602001906100749291906100e5565b50826002908051906020019061008b9291906100e5565b508160038190555080600460006101000a81548173ffffffffffffffffffffffffffffffffffffffff021916908373ffffffffffffffffffffffffffffffffffffffff16021790555084600181905550505050505061018a565b828054600181600116156101000203166002900490600052602060002090601f016020900481019282601f1061012657805160ff1916838001178555610154565b82800160010185558215610154579182015b82811115610153578251825591602001919060010190610138565b5b5090506101619190610165565b5090565b61018791905b8082111561018357600081600090555060010161016b565b5090565b90565b6108a4806101996000396000f300608060405260043610610099576000357c0100000000000000000000000000000000000000000000000000000000900463ffffffff16806309e90fde1461009e578063262a9dff146100b5578063481c6a75146100e057806379caad8614610137578063870be7dd146101c757806398f6f0e114610257578063aee14460146102e7578063d50095841461043a578063e07f444414610491575b600080fd5b3480156100aa57600080fd5b506100b36104bc565b005b3480156100c157600080fd5b506100ca6104be565b6040518082815260200191505060405180910390f35b3480156100ec57600080fd5b506100f56104c4565b604051808273ffffffffffffffffffffffffffffffffffffffff1673ffffffffffffffffffffffffffffffffffffffff16815260200191505060405180910390f35b34801561014357600080fd5b5061014c6104ea565b6040518080602001828103825283818151815260200191508051906020019080838360005b8381101561018c578082015181840152602081019050610171565b50505050905090810190601f1680156101b95780820380516001836020036101000a031916815260200191505b509250505060405180910390f35b3480156101d357600080fd5b506101dc610588565b6040518080602001828103825283818151815260200191508051906020019080838360005b8381101561021c578082015181840152602081019050610201565b50505050905090810190601f1680156102495780820380516001836020036101000a031916815260200191505b509250505060405180910390f35b34801561026357600080fd5b5061026c61062a565b6040518080602001828103825283818151815260200191508051906020019080838360005b838110156102ac578082015181840152602081019050610291565b50505050905090810190601f1680156102d95780820380516001836020036101000a031916815260200191505b509250505060405180910390f35b3480156102f357600080fd5b50610312600480360381019080803590602001909291905050506106c8565b6040518086815260200180602001806020018581526020018473ffffffffffffffffffffffffffffffffffffffff1673ffffffffffffffffffffffffffffffffffffffff168152602001838103835287818151815260200191508051906020019080838360005b83811015610394578082015181840152602081019050610379565b50505050905090810190601f1680156103c15780820380516001836020036101000a031916815260200191505b50838103825286818151815260200191508051906020019080838360005b838110156103fa5780820151818401526020810190506103df565b50505050905090810190601f1680156104275780820380516001836020036101000a031916815260200191505b5097505050505050505060405180910390f35b34801561044657600080fd5b5061044f610848565b604051808273ffffffffffffffffffffffffffffffffffffffff1673ffffffffffffffffffffffffffffffffffffffff16815260200191505060405180910390f35b34801561049d57600080fd5b506104a6610872565b6040518082815260200191505060405180910390f35b565b60035481565b600460009054906101000a900473ffffffffffffffffffffffffffffffffffffffff1681565b60028054600181600116156101000203166002900480601f0160208091040260200160405190810160405280929190818152602001828054600181600116156101000203166002900480156105805780601f1061055557610100808354040283529160200191610580565b820191906000526020600020905b81548152906001019060200180831161056357829003601f168201915b505050505081565b606060008054600181600116156101000203166002900480601f0160208091040260200160405190810160405280929190818152602001828054600181600116156101000203166002900480156106205780601f106105f557610100808354040283529160200191610620565b820191906000526020600020905b81548152906001019060200180831161060357829003601f168201915b5050505050905090565b60008054600181600116156101000203166002900480601f0160208091040260200160405190810160405280929190818152602001828054600181600116156101000203166002900480156106c05780601f10610695576101008083540402835291602001916106c0565b820191906000526020600020905b8154815290600101906020018083116106a357829003601f168201915b505050505081565b600060608060008060015460006002600354600460009054906101000a900473ffffffffffffffffffffffffffffffffffffffff16838054600181600116156101000203166002900480601f0160208091040260200160405190810160405280929190818152602001828054600181600116156101000203166002900480156107925780601f1061076757610100808354040283529160200191610792565b820191906000526020600020905b81548152906001019060200180831161077557829003601f168201915b50505050509350828054600181600116156101000203166002900480601f01602080910402602001604051908101604052809291908181526020018280546001816001161561010002031660029004801561082e5780601f106108035761010080835404028352916020019161082e565b820191906000526020600020905b81548152906001019060200180831161081157829003601f168201915b505050505092509450945094509450945091939590929450565b6000600460009054906101000a900473ffffffffffffffffffffffffffffffffffffffff16905090565b600154815600a165627a7a723058201f8f7de1dc327225a470a2b45770b145cb59af4c0fd283f2c8d9dd20f5031a5f0029a165627a7a72305820f0035c3c3c6b14cbf3031d3f3ce50152345d0bc516d7a64b4a6b4762833463ef0029",
  "source": "pragma solidity ^0.4.24;\n\ncontract PatientFactory{\n       mapping (address=>address) public accountToAddress;\n       mapping (uint => address)  public patientIdToAddress;\n       mapping(uint=>bool) public checkPatientId;\n\n       uint[] public patientId;\n       address public manager;\n       constructor(){\n         manager= msg.sender;\n       }\n    function addPatient(uint _PatientId , string _patientName , string _gender , uint _age , address _account) public {\n        require(!checkPatientId[_PatientId]);\n        address newPatient = new Patient(_PatientId , _patientName , _gender , _age , _account);\n        accountToAddress[_account] = newPatient;\n        patientIdToAddress[_PatientId] = newPatient;\n        patientId.push(_PatientId);\n        checkPatientId[_PatientId]=true;\n\n\n    }\n\n    function getPatientList() public view returns(uint){\n      return patientId.length;\n  }\n    // function getAddress(string _patientId) public view returns(address){\n    //     return(patientIdToAddress[_patientId]);\n    // }\n\n}\n\n\ncontract Patient{\n\n    string public patientName;\n    uint public patientId;\n    string public gender;\n    uint public age;\n    address public manager;\n    constructor( uint _PatientId  , string _patientName, string _gender, uint _age , address _account) public{\n        patientName = _patientName;\n        gender = _gender;\n        age = _age;\n        manager = _account;\n        patientId = _PatientId;\n\n    }\n\n    function getManager() public view returns(address){\n        return (manager);\n    }\n\n\n      function getPatientName() public view returns(string){\n          return(patientName);\n      }\n      function getSummary(uint _PatientId) public view returns(uint , string , string , uint , address){\n        return(patientId , patientName , gender , age , manager);\n      }\n    function viewAppointments() public pure{\n\n\n    }\n\n}\n",
  "sourcePath": "/home/yasir/Desktop/health-care/contracts/Patient.sol",
  "compiler": {
    "name": "solc",
    "version": "0.4.24+commit.e67f0147.Emscripten.clang"
  },
  "schemaVersion": "2.0.1",
  "updatedAt": "2019-01-26T10:04:37.712Z"
}