{
  "contractName": "Patient",
  "abi": [
    {
      "constant": true,
      "inputs": [
        {
          "name": "",
          "type": "uint256"
        }
      ],
      "name": "appointments",
      "outputs": [
        {
          "name": "appointmentId",
          "type": "uint256"
        },
        {
          "name": "patientId",
          "type": "uint256"
        },
        {
          "name": "doctorId",
          "type": "uint256"
        },
        {
          "name": "date",
          "type": "string"
        },
        {
          "name": "chiefComplaint",
          "type": "string"
        },
        {
          "name": "hash",
          "type": "string"
        },
        {
          "name": "completed",
          "type": "bool"
        }
      ],
      "payable": false,
      "stateMutability": "view",
      "type": "function"
    },
    {
      "constant": true,
      "inputs": [],
      "name": "age",
      "outputs": [
        {
          "name": "",
          "type": "uint256"
        }
      ],
      "payable": false,
      "stateMutability": "view",
      "type": "function"
    },
    {
      "constant": true,
      "inputs": [],
      "name": "manager",
      "outputs": [
        {
          "name": "",
          "type": "address"
        }
      ],
      "payable": false,
      "stateMutability": "view",
      "type": "function"
    },
    {
      "constant": true,
      "inputs": [],
      "name": "doctorIdArray",
      "outputs": [
        {
          "name": "",
          "type": "uint256"
        }
      ],
      "payable": false,
      "stateMutability": "view",
      "type": "function"
    },
    {
      "constant": true,
      "inputs": [],
      "name": "gender",
      "outputs": [
        {
          "name": "",
          "type": "string"
        }
      ],
      "payable": false,
      "stateMutability": "view",
      "type": "function"
    },
    {
      "constant": true,
      "inputs": [],
      "name": "patientName",
      "outputs": [
        {
          "name": "",
          "type": "string"
        }
      ],
      "payable": false,
      "stateMutability": "view",
      "type": "function"
    },
    {
      "constant": true,
      "inputs": [
        {
          "name": "",
          "type": "uint256"
        }
      ],
      "name": "appointmentsList",
      "outputs": [
        {
          "name": "",
          "type": "uint256"
        }
      ],
      "payable": false,
      "stateMutability": "view",
      "type": "function"
    },
    {
      "constant": true,
      "inputs": [],
      "name": "patientId",
      "outputs": [
        {
          "name": "",
          "type": "uint256"
        }
      ],
      "payable": false,
      "stateMutability": "view",
      "type": "function"
    },
    {
      "constant": true,
      "inputs": [
        {
          "name": "",
          "type": "uint256"
        }
      ],
      "name": "doctorApproval",
      "outputs": [
        {
          "name": "",
          "type": "bool"
        }
      ],
      "payable": false,
      "stateMutability": "view",
      "type": "function"
    },
    {
      "inputs": [
        {
          "name": "_PatientId",
          "type": "uint256"
        },
        {
          "name": "_patientName",
          "type": "string"
        },
        {
          "name": "_gender",
          "type": "string"
        },
        {
          "name": "_age",
          "type": "uint256"
        },
        {
          "name": "_account",
          "type": "address"
        }
      ],
      "payable": false,
      "stateMutability": "nonpayable",
      "type": "constructor"
    },
    {
      "constant": false,
      "inputs": [
        {
          "name": "_AppointmentId",
          "type": "uint256"
        },
        {
          "name": "_PatientId",
          "type": "uint256"
        },
        {
          "name": "_DoctorId",
          "type": "uint256"
        },
        {
          "name": "_Date",
          "type": "string"
        },
        {
          "name": "_chiefComplaint",
          "type": "string"
        }
      ],
      "name": "addAppointment",
      "outputs": [],
      "payable": false,
      "stateMutability": "nonpayable",
      "type": "function"
    },
    {
      "constant": true,
      "inputs": [
        {
          "name": "_PatientId",
          "type": "uint256"
        }
      ],
      "name": "getSummary",
      "outputs": [
        {
          "name": "",
          "type": "uint256"
        },
        {
          "name": "",
          "type": "string"
        },
        {
          "name": "",
          "type": "string"
        },
        {
          "name": "",
          "type": "uint256"
        },
        {
          "name": "",
          "type": "address"
        }
      ],
      "payable": false,
      "stateMutability": "view",
      "type": "function"
    },
    {
      "constant": false,
      "inputs": [
        {
          "name": "appointmentId",
          "type": "uint256"
        },
        {
          "name": "prescription",
          "type": "string"
        }
      ],
      "name": "addPrescription",
      "outputs": [
        {
          "name": "",
          "type": "uint256"
        }
      ],
      "payable": false,
      "stateMutability": "nonpayable",
      "type": "function"
    },
    {
      "constant": true,
      "inputs": [],
      "name": "getAppointmentList",
      "outputs": [
        {
          "name": "",
          "type": "uint256"
        }
      ],
      "payable": false,
      "stateMutability": "view",
      "type": "function"
    },
    {
      "constant": false,
      "inputs": [
        {
          "name": "doctorId",
          "type": "uint256"
        }
      ],
      "name": "addDoctorApproval",
      "outputs": [],
      "payable": false,
      "stateMutability": "nonpayable",
      "type": "function"
    },
    {
      "constant": false,
      "inputs": [
        {
          "name": "doctorId",
          "type": "uint256"
        }
      ],
      "name": "blockDoctor",
      "outputs": [],
      "payable": false,
      "stateMutability": "nonpayable",
      "type": "function"
    }
  ],
  "bytecode": "0x60806040523480156200001157600080fd5b50604051620012d6380380620012d68339810180604052810190808051906020019092919080518201929190602001805182019291906020018051906020019092919080519060200190929190505050836000908051906020019062000079929190620000ed565b50826002908051906020019062000092929190620000ed565b508160038190555080600460006101000a81548173ffffffffffffffffffffffffffffffffffffffff021916908373ffffffffffffffffffffffffffffffffffffffff1602179055508460018190555050505050506200019c565b828054600181600116156101000203166002900490600052602060002090601f016020900481019282601f106200013057805160ff191683800117855562000161565b8280016001018555821562000161579182015b828111156200016057825182559160200191906001019062000143565b5b50905062000170919062000174565b5090565b6200019991905b80821115620001955760008160009055506001016200017b565b5090565b90565b61112a80620001ac6000396000f3006080604052600436106100db576000357c0100000000000000000000000000000000000000000000000000000000900463ffffffff16806312dc9013146100e0578063262a9dff1461027e5780634564d890146102a9578063466c6db7146102d6578063481c6a75146103a35780634e8c010d146103fa57806379caad8614610425578063975a430f146104b55780639788ffc6146104e057806398f6f0e11461050d578063aee144601461059d578063c33465fa146106f0578063e07f444414610731578063e09183a61461075c578063e571fd2d146107a1575b600080fd5b3480156100ec57600080fd5b5061010b60048036038101908080359060200190929190505050610828565b6040518088815260200187815260200186815260200180602001806020018060200185151515158152602001848103845288818151815260200191508051906020019080838360005b8381101561016f578082015181840152602081019050610154565b50505050905090810190601f16801561019c5780820380516001836020036101000a031916815260200191505b50848103835287818151815260200191508051906020019080838360005b838110156101d55780820151818401526020810190506101ba565b50505050905090810190601f1680156102025780820380516001836020036101000a031916815260200191505b50848103825286818151815260200191508051906020019080838360005b8381101561023b578082015181840152602081019050610220565b50505050905090810190601f1680156102685780820380516001836020036101000a031916815260200191505b509a505050505050505050505060405180910390f35b34801561028a57600080fd5b50610293610a3f565b6040518082815260200191505060405180910390f35b3480156102b557600080fd5b506102d460048036038101908080359060200190929190505050610a45565b005b3480156102e257600080fd5b506103a1600480360381019080803590602001909291908035906020019092919080359060200190929190803590602001908201803590602001908080601f0160208091040260200160405190810160405280939291908181526020018383808284378201915050505050509192919290803590602001908201803590602001908080601f0160208091040260200160405190810160405280939291908181526020018383808284378201915050505050509192919290505050610a87565b005b3480156103af57600080fd5b506103b8610bb8565b604051808273ffffffffffffffffffffffffffffffffffffffff1673ffffffffffffffffffffffffffffffffffffffff16815260200191505060405180910390f35b34801561040657600080fd5b5061040f610bde565b6040518082815260200191505060405180910390f35b34801561043157600080fd5b5061043a610be4565b6040518080602001828103825283818151815260200191508051906020019080838360005b8381101561047a57808201518184015260208101905061045f565b50505050905090810190601f1680156104a75780820380516001836020036101000a031916815260200191505b509250505060405180910390f35b3480156104c157600080fd5b506104ca610c82565b6040518082815260200191505060405180910390f35b3480156104ec57600080fd5b5061050b60048036038101908080359060200190929190505050610c8f565b005b34801561051957600080fd5b50610522610cd0565b6040518080602001828103825283818151815260200191508051906020019080838360005b83811015610562578082015181840152602081019050610547565b50505050905090810190601f16801561058f5780820380516001836020036101000a031916815260200191505b509250505060405180910390f35b3480156105a957600080fd5b506105c860048036038101908080359060200190929190505050610d6e565b6040518086815260200180602001806020018581526020018473ffffffffffffffffffffffffffffffffffffffff1673ffffffffffffffffffffffffffffffffffffffff168152602001838103835287818151815260200191508051906020019080838360005b8381101561064a57808201518184015260208101905061062f565b50505050905090810190601f1680156106775780820380516001836020036101000a031916815260200191505b50838103825286818151815260200191508051906020019080838360005b838110156106b0578082015181840152602081019050610695565b50505050905090810190601f1680156106dd5780820380516001836020036101000a031916815260200191505b5097505050505050505060405180910390f35b3480156106fc57600080fd5b5061071b60048036038101908080359060200190929190505050610eee565b6040518082815260200191505060405180910390f35b34801561073d57600080fd5b50610746610f11565b6040518082815260200191505060405180910390f35b34801561076857600080fd5b5061078760048036038101908080359060200190929190505050610f17565b604051808215151515815260200191505060405180910390f35b3480156107ad57600080fd5b5061081260048036038101908080359060200190929190803590602001908201803590602001908080601f0160208091040260200160405190810160405280939291908181526020018383808284378201915050505050509192919290505050610f37565b6040518082815260200191505060405180910390f35b6008602052806000526040600020600091509050806000015490806001015490806002015490806003018054600181600116156101000203166002900480601f0160208091040260200160405190810160405280929190818152602001828054600181600116156101000203166002900480156108e65780601f106108bb576101008083540402835291602001916108e6565b820191906000526020600020905b8154815290600101906020018083116108c957829003601f168201915b505050505090806004018054600181600116156101000203166002900480601f0160208091040260200160405190810160405280929190818152602001828054600181600116156101000203166002900480156109845780601f1061095957610100808354040283529160200191610984565b820191906000526020600020905b81548152906001019060200180831161096757829003601f168201915b505050505090806005018054600181600116156101000203166002900480601f016020809104026020016040519081016040528092919081815260200182805460018160011615610100020316600290048015610a225780601f106109f757610100808354040283529160200191610a22565b820191906000526020600020905b815481529060010190602001808311610a0557829003601f168201915b5050505050908060060160009054906101000a900460ff16905087565b60035481565b60006005600083815260200190815260200160002060006101000a81548160ff0219169083151502179055506006600081548092919060019003919050555050565b610a8f610f99565b60e0604051908101604052808781526020018681526020018581526020018481526020018381526020016020604051908101604052806000815250815260200160001515815250905080600860008881526020019081526020016000206000820151816000015560208201518160010155604082015181600201556060820151816003019080519060200190610b26929190610fd9565b506080820151816004019080519060200190610b43929190610fd9565b5060a0820151816005019080519060200190610b60929190610fd9565b5060c08201518160060160006101000a81548160ff0219169083151502179055509050506007869080600181540180825580915050906001820390600052602060002001600090919290919091505550505050505050565b600460009054906101000a900473ffffffffffffffffffffffffffffffffffffffff1681565b60065481565b60028054600181600116156101000203166002900480601f016020809104026020016040519081016040528092919081815260200182805460018160011615610100020316600290048015610c7a5780601f10610c4f57610100808354040283529160200191610c7a565b820191906000526020600020905b815481529060010190602001808311610c5d57829003601f168201915b505050505081565b6000600780549050905090565b60016005600083815260200190815260200160002060006101000a81548160ff02191690831515021790555060066000815480929190600101919050555050565b60008054600181600116156101000203166002900480601f016020809104026020016040519081016040528092919081815260200182805460018160011615610100020316600290048015610d665780601f10610d3b57610100808354040283529160200191610d66565b820191906000526020600020905b815481529060010190602001808311610d4957829003601f168201915b505050505081565b600060608060008060015460006002600354600460009054906101000a900473ffffffffffffffffffffffffffffffffffffffff16838054600181600116156101000203166002900480601f016020809104026020016040519081016040528092919081815260200182805460018160011615610100020316600290048015610e385780601f10610e0d57610100808354040283529160200191610e38565b820191906000526020600020905b815481529060010190602001808311610e1b57829003601f168201915b50505050509350828054600181600116156101000203166002900480601f016020809104026020016040519081016040528092919081815260200182805460018160011615610100020316600290048015610ed45780601f10610ea957610100808354040283529160200191610ed4565b820191906000526020600020905b815481529060010190602001808311610eb757829003601f168201915b505050505092509450945094509450945091939590929450565b600781815481101515610efd57fe5b906000526020600020016000915090505481565b60015481565b60056020528060005260406000206000915054906101000a900460ff1681565b600081600860008581526020019081526020016000206005019080519060200190610f63929190611059565b5060016008600085815260200190815260200160002060060160006101000a81548160ff02191690831515021790555092915050565b60e0604051908101604052806000815260200160008152602001600081526020016060815260200160608152602001606081526020016000151581525090565b828054600181600116156101000203166002900490600052602060002090601f016020900481019282601f1061101a57805160ff1916838001178555611048565b82800160010185558215611048579182015b8281111561104757825182559160200191906001019061102c565b5b50905061105591906110d9565b5090565b828054600181600116156101000203166002900490600052602060002090601f016020900481019282601f1061109a57805160ff19168380011785556110c8565b828001600101855582156110c8579182015b828111156110c75782518255916020019190600101906110ac565b5b5090506110d591906110d9565b5090565b6110fb91905b808211156110f75760008160009055506001016110df565b5090565b905600a165627a7a723058208f7b506c48fa24ad972a356214ec9b656e3b46b059b999d38b92330188dfae700029",
  "source": "pragma solidity ^0.4.24;\ncontract Patient{\n\n    string public patientName;\n    uint public patientId;\n    string public gender;\n    uint public age;\n    address public manager;\n    mapping(uint => bool) public doctorApproval;\n   uint  public doctorIdArray;\n\n    struct Appointment{\n        uint appointmentId;\n        uint patientId;\n        uint doctorId;\n        string date;\n        string chiefComplaint;\n        string hash;\n        bool completed;\n    }\n    uint[] public appointmentsList;\n    mapping(uint=>Appointment) public appointments;\n\n    constructor( uint _PatientId  , string _patientName, string _gender, uint _age , address _account){\n        patientName = _patientName;\n        gender = _gender;\n        age = _age;\n        manager = _account;\n        patientId = _PatientId;\n\n    }\n\n      function addAppointment(uint _AppointmentId, uint _PatientId , uint _DoctorId , string _Date , string _chiefComplaint) public{\n          Appointment memory newAppointment = Appointment({\n              appointmentId : _AppointmentId ,\n              patientId : _PatientId ,\n              doctorId : _DoctorId ,\n              date : _Date ,\n              chiefComplaint : _chiefComplaint,\n              hash : '',\n              completed: false\n\n\n          });\n\n          appointments[_AppointmentId]=newAppointment;\n          appointmentsList.push(_AppointmentId);\n      }\n\n\n    function getSummary(uint _PatientId) public view returns(uint , string , string , uint , address){\n              return(patientId , patientName , gender , age , manager);\n            }\n\n\n    function addPrescription(uint appointmentId , string prescription) public returns(uint){\n            appointments[appointmentId].hash = prescription;\n            appointments[appointmentId].completed = true;\n    }\n\n    function getAppointmentList() public view returns(uint){\n        return appointmentsList.length;\n    }\n\n\n    function addDoctorApproval(uint doctorId) public{\n            doctorApproval[doctorId] = true;\n            doctorIdArray++;\n\n            //doctorIdArray.push(doctorId);\n        }\n\n    function blockDoctor(uint doctorId) public{\n        doctorApproval[doctorId] = false;\n        doctorIdArray--;\n        //removeByValue(doctorId);\n       }\n\n    //for Array\n\n    // function getDoctorArray() returns (uint){\n    //   return doctorIdArray.length;\n    //   }\n    //\n    // function find(uint doctorId) returns(uint) {\n    //     uint i = 0;\n    //     while (doctorIdArray[i] != doctorId) {\n    //         i++;\n    //     }\n    //     return i;\n    // }\n    //\n    // function removeByValue(uint value) {\n    //     uint i = find(value);\n    //     removeByIndex(i);\n    // }\n    //\n    // function removeByIndex(uint i) {\n    //     while (i<doctorIdArray.length-1) {\n    //         doctorIdArray[i] = doctorIdArray[i+1];\n    //         i++;\n    //     }\n    //     doctorIdArray.length--;\n    // }\n}\n",
  "sourcePath": "/home/aman/Downloads/Video/health/contracts/Patient.sol",
  "compiler": {
    "name": "solc",
    "version": "0.4.24+commit.e67f0147.Emscripten.clang"
  },
  "schemaVersion": "2.0.1",
  "updatedAt": "2019-02-27T06:47:28.704Z"
}